:08000000803102288731FD2F39
:100EA200080087317327873187315B278731873184
:100EB20089270800623051018D008F0191010230B3
:100EC2009300900192010800F300730841019E0013
:100ED20093171313131413186C2F0D08F1000C0839
:100EE200F000080040019701960198017E01B901C6
:100EF200C401CF01F730B800FF30C300C330CE00C9
:100F0200FF3040019200BF3093000F309100080083
:100F120041019401950196019901970198019A0165
:100F22009B019C019D019E0142018D018E018F0159
:100F320090019101920193018430410193000800D4
:100F420087315127873140018C19A42F8C19CD2F5D
:100F52000E0C890C0139F0000E0CF100F10C710C31
:100F62000139013E890AB62FF035890BB52F700879
:100F7200F2000130F235890BBB2F0E0E01397207D8
:100F8200F3000130F335890BC32F0E0E890C0139A2
:100F92007307F4007408F5007508080087315227BA
:100FA200873102308731652787317108F800700870
:100FB200F7008731A1278731F6007608F900400152
:100FC2000C12F02F0C16930113119311131293129A
:100FD2000E118E150E168E16F82F0C12F82F790898
:100FE200013A0319E32F033A0319E32FEE2F1315E6
:0E0FF200931513169316D22F40018731CF2F7F
:020000040001F9
:0A000E00EC3FFF3F9F3FFF3FFF3F25
:00000001FF
